{
  "_format": "hh3-artifact-1",
  "contractName": "ProjectRegistry",
  "sourceName": "contracts/ProjectRegistry.sol",
  "abi": [
    {
      "anonymous": false,
      "inputs": [
        {
          "indexed": true,
          "internalType": "uint256",
          "name": "projectId",
          "type": "uint256"
        },
        {
          "indexed": true,
          "internalType": "address",
          "name": "creator",
          "type": "address"
        },
        {
          "indexed": false,
          "internalType": "string",
          "name": "ensName",
          "type": "string"
        },
        {
          "indexed": false,
          "internalType": "address",
          "name": "escrow",
          "type": "address"
        },
        {
          "indexed": false,
          "internalType": "string",
          "name": "metaURI",
          "type": "string"
        }
      ],
      "name": "ProjectCreated",
      "type": "event"
    },
    {
      "inputs": [
        {
          "internalType": "string",
          "name": "ensName",
          "type": "string"
        },
        {
          "internalType": "address",
          "name": "escrow",
          "type": "address"
        },
        {
          "internalType": "string",
          "name": "metaURI",
          "type": "string"
        }
      ],
      "name": "createProject",
      "outputs": [
        {
          "internalType": "uint256",
          "name": "id",
          "type": "uint256"
        }
      ],
      "stateMutability": "nonpayable",
      "type": "function"
    },
    {
      "inputs": [
        {
          "internalType": "uint256",
          "name": "id",
          "type": "uint256"
        }
      ],
      "name": "getProject",
      "outputs": [
        {
          "components": [
            {
              "internalType": "address",
              "name": "creator",
              "type": "address"
            },
            {
              "internalType": "address",
              "name": "escrow",
              "type": "address"
            },
            {
              "internalType": "string",
              "name": "ensName",
              "type": "string"
            },
            {
              "internalType": "string",
              "name": "metaURI",
              "type": "string"
            }
          ],
          "internalType": "struct ProjectRegistry.Project",
          "name": "",
          "type": "tuple"
        }
      ],
      "stateMutability": "view",
      "type": "function"
    },
    {
      "inputs": [],
      "name": "nextId",
      "outputs": [
        {
          "internalType": "uint256",
          "name": "",
          "type": "uint256"
        }
      ],
      "stateMutability": "view",
      "type": "function"
    }
  ],
  "bytecode": "0x6080604052348015600e575f5ffd5b506107a58061001c5f395ff3fe608060405234801561000f575f5ffd5b506004361061003f575f3560e01c806361b8ce8c146100435780638572b6281461005e578063f0f3f2c814610071575b5f5ffd5b61004b5f5481565b6040519081526020015b60405180910390f35b61004b61006c36600461045a565b610091565b61008461007f3660046104e7565b61024b565b604051610055919061052c565b5f6001600160a01b0384166100d85760405162461bcd60e51b81526020600482015260086024820152670657363726f773d360c41b60448201526064015b60405180910390fd5b5f5f81546100e59061058f565b91905081905590506040518060800160405280336001600160a01b03168152602001856001600160a01b0316815260200187878080601f0160208091040260200160405190810160405280939291908181526020018383808284375f92019190915250505090825250604080516020601f8701819004810282018101909252858152918101919086908690819084018382808284375f92018290525093909452505083815260016020818152604092839020855181546001600160a01b03199081166001600160a01b0392831617835592870151938201805490931693169290921790559083015190915060028201906101df908261064b565b50606082015160038201906101f4908261064b565b50905050336001600160a01b0316817f643f0137bea486c4aac44885abb96095833d1b0a4b6e03204eca9865da2ea3c2888888888860405161023a95949392919061072e565b60405180910390a395945050505050565b604080516080810182525f80825260208201526060918101829052818101919091525f828152600160208181526040808420815160808101835281546001600160a01b0390811682529482015490941692840192909252600282018054918401916102b5906105c7565b80601f01602080910402602001604051908101604052809291908181526020018280546102e1906105c7565b801561032c5780601f106103035761010080835404028352916020019161032c565b820191905f5260205f20905b81548152906001019060200180831161030f57829003601f168201915b50505050508152602001600382018054610345906105c7565b80601f0160208091040260200160405190810160405280929190818152602001828054610371906105c7565b80156103bc5780601f10610393576101008083540402835291602001916103bc565b820191905f5260205f20905b81548152906001019060200180831161039f57829003601f168201915b5050509190925250505060208101519091506001600160a01b031661040f5760405162461bcd60e51b81526020600482015260096024820152681b9bdd08199bdd5b9960ba1b60448201526064016100cf565b92915050565b5f5f83601f840112610425575f5ffd5b50813567ffffffffffffffff81111561043c575f5ffd5b602083019150836020828501011115610453575f5ffd5b9250929050565b5f5f5f5f5f6060868803121561046e575f5ffd5b853567ffffffffffffffff811115610484575f5ffd5b61049088828901610415565b90965094505060208601356001600160a01b03811681146104af575f5ffd5b9250604086013567ffffffffffffffff8111156104ca575f5ffd5b6104d688828901610415565b969995985093965092949392505050565b5f602082840312156104f7575f5ffd5b5035919050565b5f81518084528060208401602086015e5f602082860101526020601f19601f83011685010191505092915050565b602080825282516001600160a01b03908116838301529083015116604080830191909152820151608060608301525f9061056960a08401826104fe565b90506060840151601f1984830301608085015261058682826104fe565b95945050505050565b5f600182016105ac57634e487b7160e01b5f52601160045260245ffd5b5060010190565b634e487b7160e01b5f52604160045260245ffd5b600181811c908216806105db57607f821691505b6020821081036105f957634e487b7160e01b5f52602260045260245ffd5b50919050565b601f82111561064657805f5260205f20601f840160051c810160208510156106245750805b601f840160051c820191505b81811015610643575f8155600101610630565b50505b505050565b815167ffffffffffffffff811115610665576106656105b3565b6106798161067384546105c7565b846105ff565b6020601f8211600181146106ab575f83156106945750848201515b5f19600385901b1c1916600184901b178455610643565b5f84815260208120601f198516915b828110156106da57878501518255602094850194600190920191016106ba565b50848210156106f757868401515f19600387901b60f8161c191681555b50505050600190811b01905550565b81835281816020850137505f828201602090810191909152601f909101601f19169091010190565b606081525f610741606083018789610706565b6001600160a01b03861660208401528281036040840152610763818587610706565b9897505050505050505056fea2646970667358221220d7e5f18a94703e61da2219dce671c869cf76bc1ac1287da9b7470a3862668f1d64736f6c634300081c0033",
  "linkReferences": {},
  "deployedLinkReferences": {},
  "immutableReferences": {},
  "inputSourceName": "project/contracts/ProjectRegistry.sol",
  "buildInfoId": "solc-0_8_28-39e5a01b81d60d020cc64a1c590685e80e44063c"
}