{
  "_format": "hh3-artifact-1",
  "contractName": "MockERC20",
  "sourceName": "contracts/MockERC20.sol",
  "abi": [
    {
      "inputs": [
        {
          "internalType": "string",
          "name": "name",
          "type": "string"
        },
        {
          "internalType": "string",
          "name": "symbol",
          "type": "string"
        },
        {
          "internalType": "uint256",
          "name": "initialSupply",
          "type": "uint256"
        }
      ],
      "stateMutability": "nonpayable",
      "type": "constructor"
    },
    {
      "inputs": [],
      "name": "ECDSAInvalidSignature",
      "type": "error"
    },
    {
      "inputs": [
        {
          "internalType": "uint256",
          "name": "length",
          "type": "uint256"
        }
      ],
      "name": "ECDSAInvalidSignatureLength",
      "type": "error"
    },
    {
      "inputs": [
        {
          "internalType": "bytes32",
          "name": "s",
          "type": "bytes32"
        }
      ],
      "name": "ECDSAInvalidSignatureS",
      "type": "error"
    },
    {
      "inputs": [
        {
          "internalType": "address",
          "name": "spender",
          "type": "address"
        },
        {
          "internalType": "uint256",
          "name": "allowance",
          "type": "uint256"
        },
        {
          "internalType": "uint256",
          "name": "needed",
          "type": "uint256"
        }
      ],
      "name": "ERC20InsufficientAllowance",
      "type": "error"
    },
    {
      "inputs": [
        {
          "internalType": "address",
          "name": "sender",
          "type": "address"
        },
        {
          "internalType": "uint256",
          "name": "balance",
          "type": "uint256"
        },
        {
          "internalType": "uint256",
          "name": "needed",
          "type": "uint256"
        }
      ],
      "name": "ERC20InsufficientBalance",
      "type": "error"
    },
    {
      "inputs": [
        {
          "internalType": "address",
          "name": "approver",
          "type": "address"
        }
      ],
      "name": "ERC20InvalidApprover",
      "type": "error"
    },
    {
      "inputs": [
        {
          "internalType": "address",
          "name": "receiver",
          "type": "address"
        }
      ],
      "name": "ERC20InvalidReceiver",
      "type": "error"
    },
    {
      "inputs": [
        {
          "internalType": "address",
          "name": "sender",
          "type": "address"
        }
      ],
      "name": "ERC20InvalidSender",
      "type": "error"
    },
    {
      "inputs": [
        {
          "internalType": "address",
          "name": "spender",
          "type": "address"
        }
      ],
      "name": "ERC20InvalidSpender",
      "type": "error"
    },
    {
      "inputs": [
        {
          "internalType": "uint256",
          "name": "deadline",
          "type": "uint256"
        }
      ],
      "name": "ERC2612ExpiredSignature",
      "type": "error"
    },
    {
      "inputs": [
        {
          "internalType": "address",
          "name": "signer",
          "type": "address"
        },
        {
          "internalType": "address",
          "name": "owner",
          "type": "address"
        }
      ],
      "name": "ERC2612InvalidSigner",
      "type": "error"
    },
    {
      "inputs": [
        {
          "internalType": "address",
          "name": "account",
          "type": "address"
        },
        {
          "internalType": "uint256",
          "name": "currentNonce",
          "type": "uint256"
        }
      ],
      "name": "InvalidAccountNonce",
      "type": "error"
    },
    {
      "inputs": [],
      "name": "InvalidShortString",
      "type": "error"
    },
    {
      "inputs": [
        {
          "internalType": "string",
          "name": "str",
          "type": "string"
        }
      ],
      "name": "StringTooLong",
      "type": "error"
    },
    {
      "anonymous": false,
      "inputs": [
        {
          "indexed": true,
          "internalType": "address",
          "name": "owner",
          "type": "address"
        },
        {
          "indexed": true,
          "internalType": "address",
          "name": "spender",
          "type": "address"
        },
        {
          "indexed": false,
          "internalType": "uint256",
          "name": "value",
          "type": "uint256"
        }
      ],
      "name": "Approval",
      "type": "event"
    },
    {
      "anonymous": false,
      "inputs": [],
      "name": "EIP712DomainChanged",
      "type": "event"
    },
    {
      "anonymous": false,
      "inputs": [
        {
          "indexed": true,
          "internalType": "address",
          "name": "from",
          "type": "address"
        },
        {
          "indexed": true,
          "internalType": "address",
          "name": "to",
          "type": "address"
        },
        {
          "indexed": false,
          "internalType": "uint256",
          "name": "value",
          "type": "uint256"
        }
      ],
      "name": "Transfer",
      "type": "event"
    },
    {
      "inputs": [],
      "name": "DOMAIN_SEPARATOR",
      "outputs": [
        {
          "internalType": "bytes32",
          "name": "",
          "type": "bytes32"
        }
      ],
      "stateMutability": "view",
      "type": "function"
    },
    {
      "inputs": [
        {
          "internalType": "address",
          "name": "owner",
          "type": "address"
        },
        {
          "internalType": "address",
          "name": "spender",
          "type": "address"
        }
      ],
      "name": "allowance",
      "outputs": [
        {
          "internalType": "uint256",
          "name": "",
          "type": "uint256"
        }
      ],
      "stateMutability": "view",
      "type": "function"
    },
    {
      "inputs": [
        {
          "internalType": "address",
          "name": "spender",
          "type": "address"
        },
        {
          "internalType": "uint256",
          "name": "value",
          "type": "uint256"
        }
      ],
      "name": "approve",
      "outputs": [
        {
          "internalType": "bool",
          "name": "",
          "type": "bool"
        }
      ],
      "stateMutability": "nonpayable",
      "type": "function"
    },
    {
      "inputs": [
        {
          "internalType": "address",
          "name": "account",
          "type": "address"
        }
      ],
      "name": "balanceOf",
      "outputs": [
        {
          "internalType": "uint256",
          "name": "",
          "type": "uint256"
        }
      ],
      "stateMutability": "view",
      "type": "function"
    },
    {
      "inputs": [
        {
          "internalType": "address",
          "name": "from",
          "type": "address"
        },
        {
          "internalType": "uint256",
          "name": "amount",
          "type": "uint256"
        }
      ],
      "name": "burn",
      "outputs": [],
      "stateMutability": "nonpayable",
      "type": "function"
    },
    {
      "inputs": [],
      "name": "decimals",
      "outputs": [
        {
          "internalType": "uint8",
          "name": "",
          "type": "uint8"
        }
      ],
      "stateMutability": "view",
      "type": "function"
    },
    {
      "inputs": [],
      "name": "eip712Domain",
      "outputs": [
        {
          "internalType": "bytes1",
          "name": "fields",
          "type": "bytes1"
        },
        {
          "internalType": "string",
          "name": "name",
          "type": "string"
        },
        {
          "internalType": "string",
          "name": "version",
          "type": "string"
        },
        {
          "internalType": "uint256",
          "name": "chainId",
          "type": "uint256"
        },
        {
          "internalType": "address",
          "name": "verifyingContract",
          "type": "address"
        },
        {
          "internalType": "bytes32",
          "name": "salt",
          "type": "bytes32"
        },
        {
          "internalType": "uint256[]",
          "name": "extensions",
          "type": "uint256[]"
        }
      ],
      "stateMutability": "view",
      "type": "function"
    },
    {
      "inputs": [
        {
          "internalType": "address",
          "name": "to",
          "type": "address"
        },
        {
          "internalType": "uint256",
          "name": "amount",
          "type": "uint256"
        }
      ],
      "name": "mint",
      "outputs": [],
      "stateMutability": "nonpayable",
      "type": "function"
    },
    {
      "inputs": [],
      "name": "name",
      "outputs": [
        {
          "internalType": "string",
          "name": "",
          "type": "string"
        }
      ],
      "stateMutability": "view",
      "type": "function"
    },
    {
      "inputs": [
        {
          "internalType": "address",
          "name": "owner",
          "type": "address"
        }
      ],
      "name": "nonces",
      "outputs": [
        {
          "internalType": "uint256",
          "name": "",
          "type": "uint256"
        }
      ],
      "stateMutability": "view",
      "type": "function"
    },
    {
      "inputs": [
        {
          "internalType": "address",
          "name": "owner",
          "type": "address"
        },
        {
          "internalType": "address",
          "name": "spender",
          "type": "address"
        },
        {
          "internalType": "uint256",
          "name": "value",
          "type": "uint256"
        },
        {
          "internalType": "uint256",
          "name": "deadline",
          "type": "uint256"
        },
        {
          "internalType": "uint8",
          "name": "v",
          "type": "uint8"
        },
        {
          "internalType": "bytes32",
          "name": "r",
          "type": "bytes32"
        },
        {
          "internalType": "bytes32",
          "name": "s",
          "type": "bytes32"
        }
      ],
      "name": "permit",
      "outputs": [],
      "stateMutability": "nonpayable",
      "type": "function"
    },
    {
      "inputs": [],
      "name": "symbol",
      "outputs": [
        {
          "internalType": "string",
          "name": "",
          "type": "string"
        }
      ],
      "stateMutability": "view",
      "type": "function"
    },
    {
      "inputs": [],
      "name": "totalSupply",
      "outputs": [
        {
          "internalType": "uint256",
          "name": "",
          "type": "uint256"
        }
      ],
      "stateMutability": "view",
      "type": "function"
    },
    {
      "inputs": [
        {
          "internalType": "address",
          "name": "to",
          "type": "address"
        },
        {
          "internalType": "uint256",
          "name": "value",
          "type": "uint256"
        }
      ],
      "name": "transfer",
      "outputs": [
        {
          "internalType": "bool",
          "name": "",
          "type": "bool"
        }
      ],
      "stateMutability": "nonpayable",
      "type": "function"
    },
    {
      "inputs": [
        {
          "internalType": "address",
          "name": "from",
          "type": "address"
        },
        {
          "internalType": "address",
          "name": "to",
          "type": "address"
        },
        {
          "internalType": "uint256",
          "name": "value",
          "type": "uint256"
        }
      ],
      "name": "transferFrom",
      "outputs": [
        {
          "internalType": "bool",
          "name": "",
          "type": "bool"
        }
      ],
      "stateMutability": "nonpayable",
      "type": "function"
    }
  ],
  "bytecode": "0x610160604052348015610010575f5ffd5b5060405161297938038061297983398181016040528101906100329190610684565b82806040518060400160405280600181526020017f31000000000000000000000000000000000000000000000000000000000000008152508585816003908161007b9190610913565b50806004908161008b9190610913565b5050506100a260058361015160201b90919060201c565b61012081815250506100be60068261015160201b90919060201c565b6101408181525050818051906020012060e08181525050808051906020012061010081815250504660a081815250506100fb61019e60201b60201c565b608081815250503073ffffffffffffffffffffffffffffffffffffffff1660c08173ffffffffffffffffffffffffffffffffffffffff168152505050505061014933826101f860201b60201c565b505050610c5b565b5f6020835110156101725761016b8361027d60201b60201c565b9050610198565b82610182836102e260201b60201c565b5f0190816101909190610913565b5060ff5f1b90505b92915050565b5f7f8b73c3c69bb8fe3d512ecc4cf759cc79239f7b179b0ffacaa9a75d522b39400f60e0516101005146306040516020016101dd959493929190610a48565b60405160208183030381529060405280519060200120905090565b5f73ffffffffffffffffffffffffffffffffffffffff168273ffffffffffffffffffffffffffffffffffffffff1603610268575f6040517fec442f0500000000000000000000000000000000000000000000000000000000815260040161025f9190610a99565b60405180910390fd5b6102795f83836102eb60201b60201c565b5050565b5f5f829050601f815111156102c957826040517f305a27a90000000000000000000000000000000000000000000000000000000081526004016102c09190610afa565b60405180910390fd5b8051816102d590610b47565b5f1c175f1b915050919050565b5f819050919050565b5f73ffffffffffffffffffffffffffffffffffffffff168373ffffffffffffffffffffffffffffffffffffffff160361033b578060025f82825461032f9190610bda565b92505081905550610409565b5f5f5f8573ffffffffffffffffffffffffffffffffffffffff1673ffffffffffffffffffffffffffffffffffffffff1681526020019081526020015f20549050818110156103c4578381836040517fe450d38c0000000000000000000000000000000000000000000000000000000081526004016103bb93929190610c0d565b60405180910390fd5b8181035f5f8673ffffffffffffffffffffffffffffffffffffffff1673ffffffffffffffffffffffffffffffffffffffff1681526020019081526020015f2081905550505b5f73ffffffffffffffffffffffffffffffffffffffff168273ffffffffffffffffffffffffffffffffffffffff1603610450578060025f828254039250508190555061049a565b805f5f8473ffffffffffffffffffffffffffffffffffffffff1673ffffffffffffffffffffffffffffffffffffffff1681526020019081526020015f205f82825401925050819055505b8173ffffffffffffffffffffffffffffffffffffffff168373ffffffffffffffffffffffffffffffffffffffff167fddf252ad1be2c89b69c2b068fc378daa952ba7f163c4a11628f55a4df523b3ef836040516104f79190610c42565b60405180910390a3505050565b5f604051905090565b5f5ffd5b5f5ffd5b5f5ffd5b5f5ffd5b5f601f19601f8301169050919050565b7f4e487b71000000000000000000000000000000000000000000000000000000005f52604160045260245ffd5b6105638261051d565b810181811067ffffffffffffffff821117156105825761058161052d565b5b80604052505050565b5f610594610504565b90506105a0828261055a565b919050565b5f67ffffffffffffffff8211156105bf576105be61052d565b5b6105c88261051d565b9050602081019050919050565b8281835e5f83830152505050565b5f6105f56105f0846105a5565b61058b565b90508281526020810184848401111561061157610610610519565b5b61061c8482856105d5565b509392505050565b5f82601f83011261063857610637610515565b5b81516106488482602086016105e3565b91505092915050565b5f819050919050565b61066381610651565b811461066d575f5ffd5b50565b5f8151905061067e8161065a565b92915050565b5f5f5f6060848603121561069b5761069a61050d565b5b5f84015167ffffffffffffffff8111156106b8576106b7610511565b5b6106c486828701610624565b935050602084015167ffffffffffffffff8111156106e5576106e4610511565b5b6106f186828701610624565b925050604061070286828701610670565b9150509250925092565b5f81519050919050565b7f4e487b71000000000000000000000000000000000000000000000000000000005f52602260045260245ffd5b5f600282049050600182168061075a57607f821691505b60208210810361076d5761076c610716565b5b50919050565b5f819050815f5260205f209050919050565b5f6020601f8301049050919050565b5f82821b905092915050565b5f600883026107cf7fffffffffffffffffffffffffffffffffffffffffffffffffffffffffffffffff82610794565b6107d98683610794565b95508019841693508086168417925050509392505050565b5f819050919050565b5f61081461080f61080a84610651565b6107f1565b610651565b9050919050565b5f819050919050565b61082d836107fa565b6108416108398261081b565b8484546107a0565b825550505050565b5f5f905090565b610858610849565b610863818484610824565b505050565b5b818110156108865761087b5f82610850565b600181019050610869565b5050565b601f8211156108cb5761089c81610773565b6108a584610785565b810160208510156108b4578190505b6108c86108c085610785565b830182610868565b50505b505050565b5f82821c905092915050565b5f6108eb5f19846008026108d0565b1980831691505092915050565b5f61090383836108dc565b9150826002028217905092915050565b61091c8261070c565b67ffffffffffffffff8111156109355761093461052d565b5b61093f8254610743565b61094a82828561088a565b5f60209050601f83116001811461097b575f8415610969578287015190505b61097385826108f8565b8655506109da565b601f19841661098986610773565b5f5b828110156109b05784890151825560018201915060208501945060208101905061098b565b868310156109cd57848901516109c9601f8916826108dc565b8355505b6001600288020188555050505b505050505050565b5f819050919050565b6109f4816109e2565b82525050565b610a0381610651565b82525050565b5f73ffffffffffffffffffffffffffffffffffffffff82169050919050565b5f610a3282610a09565b9050919050565b610a4281610a28565b82525050565b5f60a082019050610a5b5f8301886109eb565b610a6860208301876109eb565b610a7560408301866109eb565b610a8260608301856109fa565b610a8f6080830184610a39565b9695505050505050565b5f602082019050610aac5f830184610a39565b92915050565b5f82825260208201905092915050565b5f610acc8261070c565b610ad68185610ab2565b9350610ae68185602086016105d5565b610aef8161051d565b840191505092915050565b5f6020820190508181035f830152610b128184610ac2565b905092915050565b5f81519050919050565b5f819050602082019050919050565b5f610b3e82516109e2565b80915050919050565b5f610b5182610b1a565b82610b5b84610b24565b9050610b6681610b33565b92506020821015610ba657610ba17fffffffffffffffffffffffffffffffffffffffffffffffffffffffffffffffff83602003600802610794565b831692505b5050919050565b7f4e487b71000000000000000000000000000000000000000000000000000000005f52601160045260245ffd5b5f610be482610651565b9150610bef83610651565b9250828201905080821115610c0757610c06610bad565b5b92915050565b5f606082019050610c205f830186610a39565b610c2d60208301856109fa565b610c3a60408301846109fa565b949350505050565b5f602082019050610c555f8301846109fa565b92915050565b60805160a05160c05160e051610100516101205161014051611ccd610cac5f395f610b0f01525f610ad401525f61108701525f61106601525f61095301525f6109a901525f6109d20152611ccd5ff3fe608060405234801561000f575f5ffd5b50600436106100f3575f3560e01c806370a08231116100955780639dc29fac116100645780639dc29fac1461028d578063a9059cbb146102a9578063d505accf146102d9578063dd62ed3e146102f5576100f3565b806370a08231146101eb5780637ecebe001461021b57806384b0196e1461024b57806395d89b411461026f576100f3565b806323b872dd116100d157806323b872dd14610163578063313ce567146101935780633644e515146101b157806340c10f19146101cf576100f3565b806306fdde03146100f7578063095ea7b31461011557806318160ddd14610145575b5f5ffd5b6100ff610325565b60405161010c919061153d565b60405180910390f35b61012f600480360381019061012a91906115ee565b6103b5565b60405161013c9190611646565b60405180910390f35b61014d6103d7565b60405161015a919061166e565b60405180910390f35b61017d60048036038101906101789190611687565b6103e0565b60405161018a9190611646565b60405180910390f35b61019b61040e565b6040516101a891906116f2565b60405180910390f35b6101b9610416565b6040516101c69190611723565b60405180910390f35b6101e960048036038101906101e491906115ee565b610424565b005b6102056004803603810190610200919061173c565b610432565b604051610212919061166e565b60405180910390f35b6102356004803603810190610230919061173c565b610477565b604051610242919061166e565b60405180910390f35b610253610488565b6040516102669796959493929190611867565b60405180910390f35b61027761052d565b604051610284919061153d565b60405180910390f35b6102a760048036038101906102a291906115ee565b6105bd565b005b6102c360048036038101906102be91906115ee565b6105cb565b6040516102d09190611646565b60405180910390f35b6102f360048036038101906102ee919061193d565b6105ed565b005b61030f600480360381019061030a91906119da565b610732565b60405161031c919061166e565b60405180910390f35b60606003805461033490611a45565b80601f016020809104026020016040519081016040528092919081815260200182805461036090611a45565b80156103ab5780601f10610382576101008083540402835291602001916103ab565b820191905f5260205f20905b81548152906001019060200180831161038e57829003601f168201915b5050505050905090565b5f5f6103bf6107b4565b90506103cc8185856107bb565b600191505092915050565b5f600254905090565b5f5f6103ea6107b4565b90506103f78582856107cd565b610402858585610860565b60019150509392505050565b5f6012905090565b5f61041f610950565b905090565b61042e8282610a06565b5050565b5f5f5f8373ffffffffffffffffffffffffffffffffffffffff1673ffffffffffffffffffffffffffffffffffffffff1681526020019081526020015f20549050919050565b5f61048182610a85565b9050919050565b5f6060805f5f5f6060610499610acb565b6104a1610b06565b46305f5f1b5f67ffffffffffffffff8111156104c0576104bf611a75565b5b6040519080825280602002602001820160405280156104ee5781602001602082028036833780820191505090505b507f0f00000000000000000000000000000000000000000000000000000000000000959493929190965096509650965096509650965090919293949596565b60606004805461053c90611a45565b80601f016020809104026020016040519081016040528092919081815260200182805461056890611a45565b80156105b35780601f1061058a576101008083540402835291602001916105b3565b820191905f5260205f20905b81548152906001019060200180831161059657829003601f168201915b5050505050905090565b6105c78282610b41565b5050565b5f5f6105d56107b4565b90506105e2818585610860565b600191505092915050565b8342111561063257836040517f62791302000000000000000000000000000000000000000000000000000000008152600401610629919061166e565b60405180910390fd5b5f7f6e71edae12b1b97f4d1f60370fef10105fa2faae0126114a169c64845d6126c98888886106608c610bc0565b8960405160200161067696959493929190611aa2565b6040516020818303038152906040528051906020012090505f61069882610c13565b90505f6106a782878787610c2c565b90508973ffffffffffffffffffffffffffffffffffffffff168173ffffffffffffffffffffffffffffffffffffffff161461071b57808a6040517f4b800e46000000000000000000000000000000000000000000000000000000008152600401610712929190611b01565b60405180910390fd5b6107268a8a8a6107bb565b50505050505050505050565b5f60015f8473ffffffffffffffffffffffffffffffffffffffff1673ffffffffffffffffffffffffffffffffffffffff1681526020019081526020015f205f8373ffffffffffffffffffffffffffffffffffffffff1673ffffffffffffffffffffffffffffffffffffffff1681526020019081526020015f2054905092915050565b5f33905090565b6107c88383836001610c5a565b505050565b5f6107d88484610732565b90507fffffffffffffffffffffffffffffffffffffffffffffffffffffffffffffffff81101561085a578181101561084b578281836040517ffb8f41b200000000000000000000000000000000000000000000000000000000815260040161084293929190611b28565b60405180910390fd5b61085984848484035f610c5a565b5b50505050565b5f73ffffffffffffffffffffffffffffffffffffffff168373ffffffffffffffffffffffffffffffffffffffff16036108d0575f6040517f96c6fd1e0000000000000000000000000000000000000000000000000000000081526004016108c79190611b5d565b60405180910390fd5b5f73ffffffffffffffffffffffffffffffffffffffff168273ffffffffffffffffffffffffffffffffffffffff1603610940575f6040517fec442f050000000000000000000000000000000000000000000000000000000081526004016109379190611b5d565b60405180910390fd5b61094b838383610e29565b505050565b5f7f000000000000000000000000000000000000000000000000000000000000000073ffffffffffffffffffffffffffffffffffffffff163073ffffffffffffffffffffffffffffffffffffffff161480156109cb57507f000000000000000000000000000000000000000000000000000000000000000046145b156109f8577f00000000000000000000000000000000000000000000000000000000000000009050610a03565b610a00611042565b90505b90565b5f73ffffffffffffffffffffffffffffffffffffffff168273ffffffffffffffffffffffffffffffffffffffff1603610a76575f6040517fec442f05000000000000000000000000000000000000000000000000000000008152600401610a6d9190611b5d565b60405180910390fd5b610a815f8383610e29565b5050565b5f60075f8373ffffffffffffffffffffffffffffffffffffffff1673ffffffffffffffffffffffffffffffffffffffff1681526020019081526020015f20549050919050565b6060610b0160057f00000000000000000000000000000000000000000000000000000000000000006110d790919063ffffffff16565b905090565b6060610b3c60067f00000000000000000000000000000000000000000000000000000000000000006110d790919063ffffffff16565b905090565b5f73ffffffffffffffffffffffffffffffffffffffff168273ffffffffffffffffffffffffffffffffffffffff1603610bb1575f6040517f96c6fd1e000000000000000000000000000000000000000000000000000000008152600401610ba89190611b5d565b60405180910390fd5b610bbc825f83610e29565b5050565b5f60075f8373ffffffffffffffffffffffffffffffffffffffff1673ffffffffffffffffffffffffffffffffffffffff1681526020019081526020015f205f815480929190600101919050559050919050565b5f610c25610c1f610950565b83611184565b9050919050565b5f5f5f5f610c3c888888886111c4565b925092509250610c4c82826112ab565b829350505050949350505050565b5f73ffffffffffffffffffffffffffffffffffffffff168473ffffffffffffffffffffffffffffffffffffffff1603610cca575f6040517fe602df05000000000000000000000000000000000000000000000000000000008152600401610cc19190611b5d565b60405180910390fd5b5f73ffffffffffffffffffffffffffffffffffffffff168373ffffffffffffffffffffffffffffffffffffffff1603610d3a575f6040517f94280d62000000000000000000000000000000000000000000000000000000008152600401610d319190611b5d565b60405180910390fd5b8160015f8673ffffffffffffffffffffffffffffffffffffffff1673ffffffffffffffffffffffffffffffffffffffff1681526020019081526020015f205f8573ffffffffffffffffffffffffffffffffffffffff1673ffffffffffffffffffffffffffffffffffffffff1681526020019081526020015f20819055508015610e23578273ffffffffffffffffffffffffffffffffffffffff168473ffffffffffffffffffffffffffffffffffffffff167f8c5be1e5ebec7d5bd14f71427d1e84f3dd0314c0f7b2291e5b200ac8c7c3b92584604051610e1a919061166e565b60405180910390a35b50505050565b5f73ffffffffffffffffffffffffffffffffffffffff168373ffffffffffffffffffffffffffffffffffffffff1603610e79578060025f828254610e6d9190611ba3565b92505081905550610f47565b5f5f5f8573ffffffffffffffffffffffffffffffffffffffff1673ffffffffffffffffffffffffffffffffffffffff1681526020019081526020015f2054905081811015610f02578381836040517fe450d38c000000000000000000000000000000000000000000000000000000008152600401610ef993929190611b28565b60405180910390fd5b8181035f5f8673ffffffffffffffffffffffffffffffffffffffff1673ffffffffffffffffffffffffffffffffffffffff1681526020019081526020015f2081905550505b5f73ffffffffffffffffffffffffffffffffffffffff168273ffffffffffffffffffffffffffffffffffffffff1603610f8e578060025f8282540392505081905550610fd8565b805f5f8473ffffffffffffffffffffffffffffffffffffffff1673ffffffffffffffffffffffffffffffffffffffff1681526020019081526020015f205f82825401925050819055505b8173ffffffffffffffffffffffffffffffffffffffff168373ffffffffffffffffffffffffffffffffffffffff167fddf252ad1be2c89b69c2b068fc378daa952ba7f163c4a11628f55a4df523b3ef83604051611035919061166e565b60405180910390a3505050565b5f7f8b73c3c69bb8fe3d512ecc4cf759cc79239f7b179b0ffacaa9a75d522b39400f7f00000000000000000000000000000000000000000000000000000000000000007f000000000000000000000000000000000000000000000000000000000000000046306040516020016110bc959493929190611bd6565b60405160208183030381529060405280519060200120905090565b606060ff5f1b83146110f3576110ec8361140d565b905061117e565b8180546110ff90611a45565b80601f016020809104026020016040519081016040528092919081815260200182805461112b90611a45565b80156111765780601f1061114d57610100808354040283529160200191611176565b820191905f5260205f20905b81548152906001019060200180831161115957829003601f168201915b505050505090505b92915050565b5f6040517f190100000000000000000000000000000000000000000000000000000000000081528360028201528260228201526042812091505092915050565b5f5f5f7f7fffffffffffffffffffffffffffffff5d576e7357a4501ddfe92f46681b20a0845f1c1115611200575f6003859250925092506112a1565b5f6001888888886040515f81526020016040526040516112239493929190611c27565b6020604051602081039080840390855afa158015611243573d5f5f3e3d5ffd5b5050506020604051035190505f73ffffffffffffffffffffffffffffffffffffffff168173ffffffffffffffffffffffffffffffffffffffff1603611294575f60015f5f1b935093509350506112a1565b805f5f5f1b935093509350505b9450945094915050565b5f60038111156112be576112bd611c6a565b5b8260038111156112d1576112d0611c6a565b5b031561140957600160038111156112eb576112ea611c6a565b5b8260038111156112fe576112fd611c6a565b5b03611335576040517ff645eedf00000000000000000000000000000000000000000000000000000000815260040160405180910390fd5b6002600381111561134957611348611c6a565b5b82600381111561135c5761135b611c6a565b5b036113a057805f1c6040517ffce698f7000000000000000000000000000000000000000000000000000000008152600401611397919061166e565b60405180910390fd5b6003808111156113b3576113b2611c6a565b5b8260038111156113c6576113c5611c6a565b5b0361140857806040517fd78bce0c0000000000000000000000000000000000000000000000000000000081526004016113ff9190611723565b60405180910390fd5b5b5050565b60605f6114198361147f565b90505f602067ffffffffffffffff81111561143757611436611a75565b5b6040519080825280601f01601f1916602001820160405280156114695781602001600182028036833780820191505090505b5090508181528360208201528092505050919050565b5f5f60ff835f1c169050601f8111156114c4576040517fb3512b0c00000000000000000000000000000000000000000000000000000000815260040160405180910390fd5b80915050919050565b5f81519050919050565b5f82825260208201905092915050565b8281835e5f83830152505050565b5f601f19601f8301169050919050565b5f61150f826114cd565b61151981856114d7565b93506115298185602086016114e7565b611532816114f5565b840191505092915050565b5f6020820190508181035f8301526115558184611505565b905092915050565b5f5ffd5b5f73ffffffffffffffffffffffffffffffffffffffff82169050919050565b5f61158a82611561565b9050919050565b61159a81611580565b81146115a4575f5ffd5b50565b5f813590506115b581611591565b92915050565b5f819050919050565b6115cd816115bb565b81146115d7575f5ffd5b50565b5f813590506115e8816115c4565b92915050565b5f5f604083850312156116045761160361155d565b5b5f611611858286016115a7565b9250506020611622858286016115da565b9150509250929050565b5f8115159050919050565b6116408161162c565b82525050565b5f6020820190506116595f830184611637565b92915050565b611668816115bb565b82525050565b5f6020820190506116815f83018461165f565b92915050565b5f5f5f6060848603121561169e5761169d61155d565b5b5f6116ab868287016115a7565b93505060206116bc868287016115a7565b92505060406116cd868287016115da565b9150509250925092565b5f60ff82169050919050565b6116ec816116d7565b82525050565b5f6020820190506117055f8301846116e3565b92915050565b5f819050919050565b61171d8161170b565b82525050565b5f6020820190506117365f830184611714565b92915050565b5f602082840312156117515761175061155d565b5b5f61175e848285016115a7565b91505092915050565b5f7fff0000000000000000000000000000000000000000000000000000000000000082169050919050565b61179b81611767565b82525050565b6117aa81611580565b82525050565b5f81519050919050565b5f82825260208201905092915050565b5f819050602082019050919050565b6117e2816115bb565b82525050565b5f6117f383836117d9565b60208301905092915050565b5f602082019050919050565b5f611815826117b0565b61181f81856117ba565b935061182a836117ca565b805f5b8381101561185a57815161184188826117e8565b975061184c836117ff565b92505060018101905061182d565b5085935050505092915050565b5f60e08201905061187a5f83018a611792565b818103602083015261188c8189611505565b905081810360408301526118a08188611505565b90506118af606083018761165f565b6118bc60808301866117a1565b6118c960a0830185611714565b81810360c08301526118db818461180b565b905098975050505050505050565b6118f2816116d7565b81146118fc575f5ffd5b50565b5f8135905061190d816118e9565b92915050565b61191c8161170b565b8114611926575f5ffd5b50565b5f8135905061193781611913565b92915050565b5f5f5f5f5f5f5f60e0888a0312156119585761195761155d565b5b5f6119658a828b016115a7565b97505060206119768a828b016115a7565b96505060406119878a828b016115da565b95505060606119988a828b016115da565b94505060806119a98a828b016118ff565b93505060a06119ba8a828b01611929565b92505060c06119cb8a828b01611929565b91505092959891949750929550565b5f5f604083850312156119f0576119ef61155d565b5b5f6119fd858286016115a7565b9250506020611a0e858286016115a7565b9150509250929050565b7f4e487b71000000000000000000000000000000000000000000000000000000005f52602260045260245ffd5b5f6002820490506001821680611a5c57607f821691505b602082108103611a6f57611a6e611a18565b5b50919050565b7f4e487b71000000000000000000000000000000000000000000000000000000005f52604160045260245ffd5b5f60c082019050611ab55f830189611714565b611ac260208301886117a1565b611acf60408301876117a1565b611adc606083018661165f565b611ae9608083018561165f565b611af660a083018461165f565b979650505050505050565b5f604082019050611b145f8301856117a1565b611b2160208301846117a1565b9392505050565b5f606082019050611b3b5f8301866117a1565b611b48602083018561165f565b611b55604083018461165f565b949350505050565b5f602082019050611b705f8301846117a1565b92915050565b7f4e487b71000000000000000000000000000000000000000000000000000000005f52601160045260245ffd5b5f611bad826115bb565b9150611bb8836115bb565b9250828201905080821115611bd057611bcf611b76565b5b92915050565b5f60a082019050611be95f830188611714565b611bf66020830187611714565b611c036040830186611714565b611c10606083018561165f565b611c1d60808301846117a1565b9695505050505050565b5f608082019050611c3a5f830187611714565b611c4760208301866116e3565b611c546040830185611714565b611c616060830184611714565b95945050505050565b7f4e487b71000000000000000000000000000000000000000000000000000000005f52602160045260245ffdfea264697066735822122045fdda845526f4723b203147ef4f867f0148992cf67fe41386c699293784045464736f6c634300081c0033",
  "linkReferences": {},
  "deployedLinkReferences": {},
  "immutableReferences": {
    "3855": [
      {
        "length": 32,
        "start": 2514
      }
    ],
    "3857": [
      {
        "length": 32,
        "start": 2473
      }
    ],
    "3859": [
      {
        "length": 32,
        "start": 2387
      }
    ],
    "3861": [
      {
        "length": 32,
        "start": 4198
      }
    ],
    "3863": [
      {
        "length": 32,
        "start": 4231
      }
    ],
    "3866": [
      {
        "length": 32,
        "start": 2772
      }
    ],
    "3869": [
      {
        "length": 32,
        "start": 2831
      }
    ]
  },
  "inputSourceName": "project/contracts/MockERC20.sol",
  "buildInfoId": "solc-0_8_28-ef9d7ce4156d689dc0d5259480e56a2be3105100"
}